{
  "address": "0xB59C15F277631606e72599EAe9ba997f34F1e7a1",
  "abi": [
    {
      "inputs": [
        {
          "internalType": "string",
          "name": "_initBaseUri",
          "type": "string"
        },
        {
          "internalType": "address",
          "name": "_layerZeroEndpoint",
          "type": "address"
        },
        {
          "internalType": "uint256",
          "name": "_whitelistPrice",
          "type": "uint256"
        },
        {
          "internalType": "uint256",
          "name": "_publicMintPrice",
          "type": "uint256"
        },
        {
          "internalType": "uint256",
          "name": "_capWhitelist",
          "type": "uint256"
        }
      ],
      "stateMutability": "nonpayable",
      "type": "constructor"
    },
    {
      "anonymous": false,
      "inputs": [
        {
          "indexed": true,
          "internalType": "address",
          "name": "owner",
          "type": "address"
        },
        {
          "indexed": true,
          "internalType": "address",
          "name": "approved",
          "type": "address"
        },
        {
          "indexed": true,
          "internalType": "uint256",
          "name": "tokenId",
          "type": "uint256"
        }
      ],
      "name": "Approval",
      "type": "event"
    },
    {
      "anonymous": false,
      "inputs": [
        {
          "indexed": true,
          "internalType": "address",
          "name": "owner",
          "type": "address"
        },
        {
          "indexed": true,
          "internalType": "address",
          "name": "operator",
          "type": "address"
        },
        {
          "indexed": false,
          "internalType": "bool",
          "name": "approved",
          "type": "bool"
        }
      ],
      "name": "ApprovalForAll",
      "type": "event"
    },
    {
      "anonymous": false,
      "inputs": [
        {
          "indexed": false,
          "internalType": "uint16",
          "name": "_srcChainId",
          "type": "uint16"
        },
        {
          "indexed": false,
          "internalType": "bytes",
          "name": "_srcAddress",
          "type": "bytes"
        },
        {
          "indexed": false,
          "internalType": "uint64",
          "name": "_nonce",
          "type": "uint64"
        },
        {
          "indexed": false,
          "internalType": "bytes",
          "name": "_payload",
          "type": "bytes"
        }
      ],
      "name": "MessageFailed",
      "type": "event"
    },
    {
      "anonymous": false,
      "inputs": [
        {
          "indexed": true,
          "internalType": "address",
          "name": "previousOwner",
          "type": "address"
        },
        {
          "indexed": true,
          "internalType": "address",
          "name": "newOwner",
          "type": "address"
        }
      ],
      "name": "OwnershipTransferred",
      "type": "event"
    },
    {
      "anonymous": false,
      "inputs": [
        {
          "indexed": true,
          "internalType": "address",
          "name": "from",
          "type": "address"
        },
        {
          "indexed": true,
          "internalType": "address",
          "name": "to",
          "type": "address"
        },
        {
          "indexed": true,
          "internalType": "uint256",
          "name": "tokenId",
          "type": "uint256"
        }
      ],
      "name": "Transfer",
      "type": "event"
    },
    {
      "inputs": [],
      "name": "MAX_MINT_AT_ONCE",
      "outputs": [
        {
          "internalType": "uint256",
          "name": "",
          "type": "uint256"
        }
      ],
      "stateMutability": "view",
      "type": "function"
    },
    {
      "inputs": [],
      "name": "MAX_SUPPLY",
      "outputs": [
        {
          "internalType": "uint256",
          "name": "",
          "type": "uint256"
        }
      ],
      "stateMutability": "view",
      "type": "function"
    },
    {
      "inputs": [
        {
          "internalType": "address",
          "name": "to",
          "type": "address"
        },
        {
          "internalType": "uint256",
          "name": "tokenId",
          "type": "uint256"
        }
      ],
      "name": "approve",
      "outputs": [],
      "stateMutability": "nonpayable",
      "type": "function"
    },
    {
      "inputs": [
        {
          "internalType": "address",
          "name": "owner",
          "type": "address"
        }
      ],
      "name": "balanceOf",
      "outputs": [
        {
          "internalType": "uint256",
          "name": "",
          "type": "uint256"
        }
      ],
      "stateMutability": "view",
      "type": "function"
    },
    {
      "inputs": [],
      "name": "baseTokenURI",
      "outputs": [
        {
          "internalType": "string",
          "name": "",
          "type": "string"
        }
      ],
      "stateMutability": "view",
      "type": "function"
    },
    {
      "inputs": [],
      "name": "capWhitelist",
      "outputs": [
        {
          "internalType": "uint256",
          "name": "",
          "type": "uint256"
        }
      ],
      "stateMutability": "view",
      "type": "function"
    },
    {
      "inputs": [],
      "name": "endpoint",
      "outputs": [
        {
          "internalType": "contract ILayerZeroEndpoint",
          "name": "",
          "type": "address"
        }
      ],
      "stateMutability": "view",
      "type": "function"
    },
    {
      "inputs": [
        {
          "internalType": "uint16",
          "name": "",
          "type": "uint16"
        },
        {
          "internalType": "bytes",
          "name": "",
          "type": "bytes"
        },
        {
          "internalType": "uint256",
          "name": "",
          "type": "uint256"
        }
      ],
      "name": "failedMessages",
      "outputs": [
        {
          "internalType": "uint256",
          "name": "payloadLength",
          "type": "uint256"
        },
        {
          "internalType": "bytes32",
          "name": "payloadHash",
          "type": "bytes32"
        }
      ],
      "stateMutability": "view",
      "type": "function"
    },
    {
      "inputs": [
        {
          "internalType": "uint16",
          "name": "_srcChainId",
          "type": "uint16"
        },
        {
          "internalType": "bytes",
          "name": "_srcAddress",
          "type": "bytes"
        }
      ],
      "name": "forceResumeReceive",
      "outputs": [],
      "stateMutability": "nonpayable",
      "type": "function"
    },
    {
      "inputs": [
        {
          "internalType": "uint256",
          "name": "tokenId",
          "type": "uint256"
        }
      ],
      "name": "getApproved",
      "outputs": [
        {
          "internalType": "address",
          "name": "",
          "type": "address"
        }
      ],
      "stateMutability": "view",
      "type": "function"
    },
    {
      "inputs": [
        {
          "internalType": "address",
          "name": "owner",
          "type": "address"
        },
        {
          "internalType": "address",
          "name": "operator",
          "type": "address"
        }
      ],
      "name": "isApprovedForAll",
      "outputs": [
        {
          "internalType": "bool",
          "name": "",
          "type": "bool"
        }
      ],
      "stateMutability": "view",
      "type": "function"
    },
    {
      "inputs": [],
      "name": "isPublicSaleOpen",
      "outputs": [
        {
          "internalType": "bool",
          "name": "",
          "type": "bool"
        }
      ],
      "stateMutability": "view",
      "type": "function"
    },
    {
      "inputs": [],
      "name": "isRevealed",
      "outputs": [
        {
          "internalType": "bool",
          "name": "",
          "type": "bool"
        }
      ],
      "stateMutability": "view",
      "type": "function"
    },
    {
      "inputs": [],
      "name": "isWhitelistSaleOpen",
      "outputs": [
        {
          "internalType": "bool",
          "name": "",
          "type": "bool"
        }
      ],
      "stateMutability": "view",
      "type": "function"
    },
    {
      "inputs": [
        {
          "internalType": "uint16",
          "name": "_srcChainId",
          "type": "uint16"
        },
        {
          "internalType": "bytes",
          "name": "_srcAddress",
          "type": "bytes"
        },
        {
          "internalType": "uint64",
          "name": "_nonce",
          "type": "uint64"
        },
        {
          "internalType": "bytes",
          "name": "_payload",
          "type": "bytes"
        }
      ],
      "name": "lzReceive",
      "outputs": [],
      "stateMutability": "nonpayable",
      "type": "function"
    },
    {
      "inputs": [],
      "name": "merkleRoot",
      "outputs": [
        {
          "internalType": "bytes32",
          "name": "",
          "type": "bytes32"
        }
      ],
      "stateMutability": "view",
      "type": "function"
    },
    {
      "inputs": [
        {
          "internalType": "uint256",
          "name": "_quantity",
          "type": "uint256"
        }
      ],
      "name": "mint",
      "outputs": [],
      "stateMutability": "payable",
      "type": "function"
    },
    {
      "inputs": [
        {
          "internalType": "uint256",
          "name": "_quantity",
          "type": "uint256"
        },
        {
          "internalType": "bytes32[]",
          "name": "_proof",
          "type": "bytes32[]"
        }
      ],
      "name": "mintWhitelist",
      "outputs": [],
      "stateMutability": "payable",
      "type": "function"
    },
    {
      "inputs": [],
      "name": "name",
      "outputs": [
        {
          "internalType": "string",
          "name": "",
          "type": "string"
        }
      ],
      "stateMutability": "view",
      "type": "function"
    },
    {
      "inputs": [
        {
          "internalType": "uint16",
          "name": "_srcChainId",
          "type": "uint16"
        },
        {
          "internalType": "bytes",
          "name": "_srcAddress",
          "type": "bytes"
        },
        {
          "internalType": "uint64",
          "name": "_nonce",
          "type": "uint64"
        },
        {
          "internalType": "bytes",
          "name": "_payload",
          "type": "bytes"
        }
      ],
      "name": "onLzReceive",
      "outputs": [],
      "stateMutability": "nonpayable",
      "type": "function"
    },
    {
      "inputs": [],
      "name": "owner",
      "outputs": [
        {
          "internalType": "address",
          "name": "",
          "type": "address"
        }
      ],
      "stateMutability": "view",
      "type": "function"
    },
    {
      "inputs": [
        {
          "internalType": "uint256",
          "name": "tokenId",
          "type": "uint256"
        }
      ],
      "name": "ownerOf",
      "outputs": [
        {
          "internalType": "address",
          "name": "",
          "type": "address"
        }
      ],
      "stateMutability": "view",
      "type": "function"
    },
    {
      "inputs": [],
      "name": "publicMintPrice",
      "outputs": [
        {
          "internalType": "uint256",
          "name": "",
          "type": "uint256"
        }
      ],
      "stateMutability": "view",
      "type": "function"
    },
    {
      "inputs": [],
      "name": "renounceOwnership",
      "outputs": [],
      "stateMutability": "nonpayable",
      "type": "function"
    },
    {
      "inputs": [
        {
          "internalType": "uint16",
          "name": "_srcChainId",
          "type": "uint16"
        },
        {
          "internalType": "bytes",
          "name": "_srcAddress",
          "type": "bytes"
        },
        {
          "internalType": "uint64",
          "name": "_nonce",
          "type": "uint64"
        },
        {
          "internalType": "bytes",
          "name": "_payload",
          "type": "bytes"
        }
      ],
      "name": "retryMessage",
      "outputs": [],
      "stateMutability": "payable",
      "type": "function"
    },
    {
      "inputs": [
        {
          "internalType": "string",
          "name": "_baseTokenURI",
          "type": "string"
        }
      ],
      "name": "reveal",
      "outputs": [],
      "stateMutability": "nonpayable",
      "type": "function"
    },
    {
      "inputs": [
        {
          "internalType": "address",
          "name": "from",
          "type": "address"
        },
        {
          "internalType": "address",
          "name": "to",
          "type": "address"
        },
        {
          "internalType": "uint256",
          "name": "tokenId",
          "type": "uint256"
        }
      ],
      "name": "safeTransferFrom",
      "outputs": [],
      "stateMutability": "nonpayable",
      "type": "function"
    },
    {
      "inputs": [
        {
          "internalType": "address",
          "name": "from",
          "type": "address"
        },
        {
          "internalType": "address",
          "name": "to",
          "type": "address"
        },
        {
          "internalType": "uint256",
          "name": "tokenId",
          "type": "uint256"
        },
        {
          "internalType": "bytes",
          "name": "_data",
          "type": "bytes"
        }
      ],
      "name": "safeTransferFrom",
      "outputs": [],
      "stateMutability": "nonpayable",
      "type": "function"
    },
    {
      "inputs": [
        {
          "internalType": "address",
          "name": "operator",
          "type": "address"
        },
        {
          "internalType": "bool",
          "name": "approved",
          "type": "bool"
        }
      ],
      "name": "setApprovalForAll",
      "outputs": [],
      "stateMutability": "nonpayable",
      "type": "function"
    },
    {
      "inputs": [
        {
          "internalType": "string",
          "name": "_baseTokenURI",
          "type": "string"
        }
      ],
      "name": "setBaseURI",
      "outputs": [],
      "stateMutability": "nonpayable",
      "type": "function"
    },
    {
      "inputs": [
        {
          "internalType": "uint256",
          "name": "_cap",
          "type": "uint256"
        }
      ],
      "name": "setCapWhitelist",
      "outputs": [],
      "stateMutability": "nonpayable",
      "type": "function"
    },
    {
      "inputs": [
        {
          "internalType": "uint16",
          "name": "_version",
          "type": "uint16"
        },
        {
          "internalType": "uint16",
          "name": "_chainId",
          "type": "uint16"
        },
        {
          "internalType": "uint256",
          "name": "_configType",
          "type": "uint256"
        },
        {
          "internalType": "bytes",
          "name": "_config",
          "type": "bytes"
        }
      ],
      "name": "setConfig",
      "outputs": [],
      "stateMutability": "nonpayable",
      "type": "function"
    },
    {
      "inputs": [
        {
          "internalType": "bytes32",
          "name": "_merkleRoot",
          "type": "bytes32"
        }
      ],
      "name": "setMerkleRoot",
      "outputs": [],
      "stateMutability": "nonpayable",
      "type": "function"
    },
    {
      "inputs": [
        {
          "internalType": "uint256",
          "name": "_price",
          "type": "uint256"
        }
      ],
      "name": "setPublicMintPrice",
      "outputs": [],
      "stateMutability": "nonpayable",
      "type": "function"
    },
    {
      "inputs": [
        {
          "internalType": "uint16",
          "name": "_version",
          "type": "uint16"
        }
      ],
      "name": "setReceiveVersion",
      "outputs": [],
      "stateMutability": "nonpayable",
      "type": "function"
    },
    {
      "inputs": [
        {
          "internalType": "uint16",
          "name": "_version",
          "type": "uint16"
        }
      ],
      "name": "setSendVersion",
      "outputs": [],
      "stateMutability": "nonpayable",
      "type": "function"
    },
    {
      "inputs": [
        {
          "internalType": "uint16",
          "name": "_chainId",
          "type": "uint16"
        },
        {
          "internalType": "bytes",
          "name": "_trustedSource",
          "type": "bytes"
        }
      ],
      "name": "setTrustedSource",
      "outputs": [],
      "stateMutability": "nonpayable",
      "type": "function"
    },
    {
      "inputs": [
        {
          "internalType": "uint256",
          "name": "_price",
          "type": "uint256"
        }
      ],
      "name": "setWhitelistPrice",
      "outputs": [],
      "stateMutability": "nonpayable",
      "type": "function"
    },
    {
      "inputs": [],
      "name": "supply",
      "outputs": [
        {
          "internalType": "uint256",
          "name": "",
          "type": "uint256"
        }
      ],
      "stateMutability": "view",
      "type": "function"
    },
    {
      "inputs": [
        {
          "internalType": "bytes4",
          "name": "interfaceId",
          "type": "bytes4"
        }
      ],
      "name": "supportsInterface",
      "outputs": [
        {
          "internalType": "bool",
          "name": "",
          "type": "bool"
        }
      ],
      "stateMutability": "view",
      "type": "function"
    },
    {
      "inputs": [],
      "name": "symbol",
      "outputs": [
        {
          "internalType": "string",
          "name": "",
          "type": "string"
        }
      ],
      "stateMutability": "view",
      "type": "function"
    },
    {
      "inputs": [],
      "name": "togglePublicSale",
      "outputs": [],
      "stateMutability": "nonpayable",
      "type": "function"
    },
    {
      "inputs": [],
      "name": "toggleWhitelistSale",
      "outputs": [],
      "stateMutability": "nonpayable",
      "type": "function"
    },
    {
      "inputs": [
        {
          "internalType": "uint256",
          "name": "tokenId",
          "type": "uint256"
        }
      ],
      "name": "tokenURI",
      "outputs": [
        {
          "internalType": "string",
          "name": "",
          "type": "string"
        }
      ],
      "stateMutability": "view",
      "type": "function"
    },
    {
      "inputs": [
        {
          "internalType": "address",
          "name": "from",
          "type": "address"
        },
        {
          "internalType": "address",
          "name": "to",
          "type": "address"
        },
        {
          "internalType": "uint256",
          "name": "tokenId",
          "type": "uint256"
        }
      ],
      "name": "transferFrom",
      "outputs": [],
      "stateMutability": "nonpayable",
      "type": "function"
    },
    {
      "inputs": [
        {
          "internalType": "address",
          "name": "newOwner",
          "type": "address"
        }
      ],
      "name": "transferOwnership",
      "outputs": [],
      "stateMutability": "nonpayable",
      "type": "function"
    },
    {
      "inputs": [
        {
          "internalType": "uint16",
          "name": "_destinationChainId",
          "type": "uint16"
        },
        {
          "internalType": "uint256",
          "name": "_tokenId",
          "type": "uint256"
        }
      ],
      "name": "transferYourNoOneToAnotherChain",
      "outputs": [],
      "stateMutability": "payable",
      "type": "function"
    },
    {
      "inputs": [
        {
          "internalType": "uint16",
          "name": "",
          "type": "uint16"
        }
      ],
      "name": "trustedSourceLookup",
      "outputs": [
        {
          "internalType": "bytes",
          "name": "",
          "type": "bytes"
        }
      ],
      "stateMutability": "view",
      "type": "function"
    },
    {
      "inputs": [
        {
          "internalType": "address",
          "name": "",
          "type": "address"
        }
      ],
      "name": "whitelistAddressesMints",
      "outputs": [
        {
          "internalType": "uint256",
          "name": "",
          "type": "uint256"
        }
      ],
      "stateMutability": "view",
      "type": "function"
    },
    {
      "inputs": [],
      "name": "whitelistPrice",
      "outputs": [
        {
          "internalType": "uint256",
          "name": "",
          "type": "uint256"
        }
      ],
      "stateMutability": "view",
      "type": "function"
    },
    {
      "inputs": [],
      "name": "withdraw",
      "outputs": [],
      "stateMutability": "nonpayable",
      "type": "function"
    }
  ],
  "transactionHash": "0x8b436e89ace6ee2970f7a291bc51b8cee9ac83fa578d0d3f659d40e058522ef9",
  "args": [
    "ipfs://QmdEhWhyw78XLC2ETudQrsrzWEKedp3oZRNADJ7YXmFyPB/",
    "0x66A71Dcef29A0fFBDBE3c6a460a3B5BC225Cd675",
    "40000000000000000",
    "50000000000000000",
    5
  ],
  "numDeployments": 1,
  "solcInputHash": "857c0ef539898a57c6af1ff8f5ba19ea",
  "bytecode": "0x6115b3600a55600f600b556000600c556010805462ffffff1916905560c06040526005608081905264173539b7b760d91b60a090815262000044916013919062000201565b503480156200005257600080fd5b5060405162004db238038062004db28339810160408190526200007591620002c4565b6040805180820182526007815266496d4e6f4f6e6560c81b6020808301918252835180850190945260058452644e4f4f4e4560d81b908401528151919291620000c19160009162000201565b508051620000d790600190602084019062000201565b505050620000f4620000ee6200013360201b60201c565b62000137565b620000ff8562000189565b600780546001600160a01b0319166001600160a01b039590951694909417909355600d91909155600e55600f55506200041d565b3390565b600680546001600160a01b038381166001600160a01b0319831681179093556040519116919082907f8be0079c531659141344cd1fd0a4f28419497f9722a3daafe3b4186f6b6457e090600090a35050565b6006546001600160a01b03163314620001e85760405162461bcd60e51b815260206004820181905260248201527f4f776e61626c653a2063616c6c6572206973206e6f7420746865206f776e6572604482015260640160405180910390fd5b8051620001fd90601290602084019062000201565b5050565b8280546200020f90620003ca565b90600052602060002090601f0160209004810192826200023357600085556200027e565b82601f106200024e57805160ff19168380011785556200027e565b828001600101855582156200027e579182015b828111156200027e57825182559160200191906001019062000261565b506200028c92915062000290565b5090565b5b808211156200028c576000815560010162000291565b80516001600160a01b0381168114620002bf57600080fd5b919050565b600080600080600060a08688031215620002dc578081fd5b85516001600160401b0380821115620002f3578283fd5b818801915088601f83011262000307578283fd5b8151818111156200031c576200031c62000407565b604051601f8201601f19908116603f0116810190838211818310171562000347576200034762000407565b81604052828152602093508b8484870101111562000363578586fd5b8591505b8282101562000386578482018401518183018501529083019062000367565b828211156200039757858484830101525b9850620003a9915050888201620002a7565b604089015160608a01516080909a0151989b919a5098979650945050505050565b600181811c90821680620003df57607f821691505b602082108114156200040157634e487b7160e01b600052602260045260246000fd5b50919050565b634e487b7160e01b600052604160045260246000fd5b614985806200042d6000396000f3fe6080604052600436106103335760003560e01c80636352211e116101b0578063c3bc32e8116100ec578063d73f057e11610095578063e222c7f91161006f578063e222c7f914610926578063e985e9c51461093b578063f2fde38b14610991578063fc1a1c36146109b157600080fd5b8063d73f057e146108d6578063dc12bbf7146108f6578063dc53fd921461091057600080fd5b8063d1deba1f116100c6578063d1deba1f14610898578063d547cfb7146108ab578063d5e13d65146108c057600080fd5b8063c3bc32e81461082b578063c87b56dd14610858578063cbed8b9c1461087857600080fd5b80638da5cb5b11610159578063a0712d6811610133578063a0712d68146107c5578063a22cb465146107d8578063a29e0ce0146107f8578063b88d4fde1461080b57600080fd5b80638da5cb5b1461071a5780638ee749121461074557806395d89b41146107b057600080fd5b8063717d57d31161018a578063717d57d3146106ba5780637cb64759146106da57806381c986ee146106fa57600080fd5b80636352211e1461066557806370a0823114610685578063715018a6146106a557600080fd5b806323b872dd1161027f57806342d65a8d1161022857806355f804b31161020257806355f804b3146105e357806359eda1b5146106035780635d82cf6e146106185780635e280f111461063857600080fd5b806342d65a8d146105835780634c261247146105a357806354214f69146105c357600080fd5b80633ccfd60b116102595780633ccfd60b1461052e5780633f8811261461054357806342842e0e1461056357600080fd5b806323b872dd146104e25780632eb4a7ab1461050257806332cb6b0c1461051857600080fd5b806307e0db17116102e157806310ddb137116102bb57806310ddb137146104835780631a6949e3146104a35780631c37a822146104c257600080fd5b806307e0db17146103fe578063081812fc1461041e578063095ea7b31461046357600080fd5b806305394dcc1161031257806305394dcc146103b3578063061431a8146103c957806306fdde03146103dc57600080fd5b80621d35671461033857806301ffc9a71461035a578063047fc9aa1461038f575b600080fd5b34801561034457600080fd5b50610358610353366004614164565b6109c7565b005b34801561036657600080fd5b5061037a610375366004613f9d565b610c0b565b60405190151581526020015b60405180910390f35b34801561039b57600080fd5b506103a5600c5481565b604051908152602001610386565b3480156103bf57600080fd5b506103a5600b5481565b6103586103d7366004614251565b610cf0565b3480156103e857600080fd5b506103f1610fa3565b60405161038691906144cb565b34801561040a57600080fd5b5061035861041936600461401b565b611035565b34801561042a57600080fd5b5061043e610439366004613f85565b611141565b60405173ffffffffffffffffffffffffffffffffffffffff9091168152602001610386565b34801561046f57600080fd5b5061035861047e366004613f5a565b61121b565b34801561048f57600080fd5b5061035861049e36600461401b565b6113a8565b3480156104af57600080fd5b5060105461037a90610100900460ff1681565b3480156104ce57600080fd5b506103586104dd366004614164565b611483565b3480156104ee57600080fd5b506103586104fd366004613e7f565b61151e565b34801561050e57600080fd5b506103a560145481565b34801561052457600080fd5b506103a5600a5481565b34801561053a57600080fd5b506103586115bf565b34801561054f57600080fd5b5061035861055e366004613f85565b611673565b34801561056f57600080fd5b5061035861057e366004613e7f565b6116f9565b34801561058f57600080fd5b5061035861059e366004614035565b611714565b3480156105af57600080fd5b506103586105be366004613fd5565b611826565b3480156105cf57600080fd5b5060105461037a9062010000900460ff1681565b3480156105ef57600080fd5b506103586105fe366004613fd5565b6118eb565b34801561060f57600080fd5b5061035861197f565b34801561062457600080fd5b50610358610633366004613f85565b611a32565b34801561064457600080fd5b5060075461043e9073ffffffffffffffffffffffffffffffffffffffff1681565b34801561067157600080fd5b5061043e610680366004613f85565b611ab8565b34801561069157600080fd5b506103a56106a0366004613dfe565b611b6a565b3480156106b157600080fd5b50610358611c38565b3480156106c657600080fd5b506103586106d5366004613f85565b611cbb565b3480156106e657600080fd5b506103586106f5366004613f85565b611d41565b34801561070657600080fd5b506103f161071536600461401b565b611dc7565b34801561072657600080fd5b5060065473ffffffffffffffffffffffffffffffffffffffff1661043e565b34801561075157600080fd5b5061079b610760366004614086565b600860209081526000938452604080852084518086018401805192815290840195840195909520945292905282529020805460019091015482565b60408051928352602083019190915201610386565b3480156107bc57600080fd5b506103f1611e61565b6103586107d3366004613f85565b611e70565b3480156107e457600080fd5b506103586107f3366004613f29565b611fd5565b610358610806366004614236565b611fe0565b34801561081757600080fd5b50610358610826366004613ebf565b612427565b34801561083757600080fd5b506103a5610846366004613dfe565b60116020526000908152604090205481565b34801561086457600080fd5b506103f1610873366004613f85565b6124c9565b34801561088457600080fd5b506103586108933660046141da565b6125b6565b6103586108a63660046140db565b6126ce565b3480156108b757600080fd5b506103f16128c0565b3480156108cc57600080fd5b506103a5600f5481565b3480156108e257600080fd5b506103586108f1366004614035565b6128cd565b34801561090257600080fd5b5060105461037a9060ff1681565b34801561091c57600080fd5b506103a5600e5481565b34801561093257600080fd5b50610358612a1b565b34801561094757600080fd5b5061037a610956366004613e47565b73ffffffffffffffffffffffffffffffffffffffff918216600090815260056020908152604080832093909416825291909152205460ff1690565b34801561099d57600080fd5b506103586109ac366004613dfe565b612ad6565b3480156109bd57600080fd5b506103a5600d5481565b60075473ffffffffffffffffffffffffffffffffffffffff1633146109eb57600080fd5b61ffff841660009081526009602052604090208054610a09906147d1565b90508351148015610a48575061ffff8416600090815260096020526040908190209051610a369190614439565b60405180910390208380519060200120145b610ad9576040517f08c379a000000000000000000000000000000000000000000000000000000000815260206004820152603460248201527f4e6f6e626c6f636b696e6752656365697665723a20696e76616c696420736f7560448201527f7263652073656e64696e6720636f6e747261637400000000000000000000000060648201526084015b60405180910390fd5b6040517f1c37a8220000000000000000000000000000000000000000000000000000000081523090631c37a82290610b1b9087908790879087906004016145a4565b600060405180830381600087803b158015610b3557600080fd5b505af1925050508015610b46575060015b610c05576040518060400160405280825181526020018280519060200120815250600860008661ffff1661ffff16815260200190815260200160002084604051610b90919061441d565b90815260408051918290036020908101832067ffffffffffffffff8716600090815290825291909120835181559201516001909201919091557fe6f254030bcb01ffd20558175c13fcaed6d1520be7becee4c961b65f79243b0d90610bfc9086908690869086906145a4565b60405180910390a15b50505050565b60007fffffffff0000000000000000000000000000000000000000000000000000000082167f80ac58cd000000000000000000000000000000000000000000000000000000001480610c9e57507fffffffff0000000000000000000000000000000000000000000000000000000082167f5b5e139f00000000000000000000000000000000000000000000000000000000145b80610cea57507f01ffc9a7000000000000000000000000000000000000000000000000000000007fffffffff000000000000000000000000000000000000000000000000000000008316145b92915050565b60105460ff161515600114610d61576040517f08c379a000000000000000000000000000000000000000000000000000000000815260206004820152601560248201527f57686974656c697374206e6f74207374617274656400000000000000000000006044820152606401610ad0565b610de9828280806020026020016040519081016040528093929190818152602001838360200280828437600092019190915250506014546040517fffffffffffffffffffffffffffffffffffffffff0000000000000000000000003360601b166020820152909250603401905060405160208183030381529060405280519060200120612c03565b610e4f576040517f08c379a000000000000000000000000000000000000000000000000000000000815260206004820152601460248201527f4e6f7420696e207468652077686974656c6973740000000000000000000000006044820152606401610ad0565b600f5433600090815260116020526040902054610e6d908590614725565b1115610efb576040517f08c379a000000000000000000000000000000000000000000000000000000000815260206004820152602760248201527f416c7265616479206d696e74656420656e6f75676820666f722074686520776860448201527f6974656c697374000000000000000000000000000000000000000000000000006064820152608401610ad0565b82600d54610f099190614751565b3414610f71576040517f08c379a000000000000000000000000000000000000000000000000000000000815260206004820152601460248201527f496e636f72726563742076616c75652073656e740000000000000000000000006044820152606401610ad0565b610f7a83612c19565b3360009081526011602052604081208054859290610f99908490614725565b9091555050505050565b606060008054610fb2906147d1565b80601f0160208091040260200160405190810160405280929190818152602001828054610fde906147d1565b801561102b5780601f106110005761010080835404028352916020019161102b565b820191906000526020600020905b81548152906001019060200180831161100e57829003601f168201915b5050505050905090565b60065473ffffffffffffffffffffffffffffffffffffffff1633146110b6576040517f08c379a000000000000000000000000000000000000000000000000000000000815260206004820181905260248201527f4f776e61626c653a2063616c6c6572206973206e6f7420746865206f776e65726044820152606401610ad0565b6007546040517f07e0db1700000000000000000000000000000000000000000000000000000000815261ffff8316600482015273ffffffffffffffffffffffffffffffffffffffff909116906307e0db17906024015b600060405180830381600087803b15801561112657600080fd5b505af115801561113a573d6000803e3d6000fd5b5050505050565b60008181526002602052604081205473ffffffffffffffffffffffffffffffffffffffff166111f2576040517f08c379a000000000000000000000000000000000000000000000000000000000815260206004820152602c60248201527f4552433732313a20617070726f76656420717565727920666f72206e6f6e657860448201527f697374656e7420746f6b656e00000000000000000000000000000000000000006064820152608401610ad0565b5060009081526004602052604090205473ffffffffffffffffffffffffffffffffffffffff1690565b600061122682611ab8565b90508073ffffffffffffffffffffffffffffffffffffffff168373ffffffffffffffffffffffffffffffffffffffff1614156112e4576040517f08c379a000000000000000000000000000000000000000000000000000000000815260206004820152602160248201527f4552433732313a20617070726f76616c20746f2063757272656e74206f776e6560448201527f72000000000000000000000000000000000000000000000000000000000000006064820152608401610ad0565b3373ffffffffffffffffffffffffffffffffffffffff8216148061130d575061130d8133610956565b611399576040517f08c379a000000000000000000000000000000000000000000000000000000000815260206004820152603860248201527f4552433732313a20617070726f76652063616c6c6572206973206e6f74206f7760448201527f6e6572206e6f7220617070726f76656420666f7220616c6c00000000000000006064820152608401610ad0565b6113a38383612d49565b505050565b60065473ffffffffffffffffffffffffffffffffffffffff163314611429576040517f08c379a000000000000000000000000000000000000000000000000000000000815260206004820181905260248201527f4f776e61626c653a2063616c6c6572206973206e6f7420746865206f776e65726044820152606401610ad0565b6007546040517f10ddb13700000000000000000000000000000000000000000000000000000000815261ffff8316600482015273ffffffffffffffffffffffffffffffffffffffff909116906310ddb1379060240161110c565b333014611512576040517f08c379a000000000000000000000000000000000000000000000000000000000815260206004820152602b60248201527f4e6f6e626c6f636b696e6752656365697665723a2063616c6c6572206d75737460448201527f206265204272696467652e0000000000000000000000000000000000000000006064820152608401610ad0565b610c0584848484612de9565b6115283382612e16565b6115b4576040517f08c379a000000000000000000000000000000000000000000000000000000000815260206004820152603160248201527f4552433732313a207472616e736665722063616c6c6572206973206e6f74206f60448201527f776e6572206e6f7220617070726f7665640000000000000000000000000000006064820152608401610ad0565b6113a3838383612f86565b60065473ffffffffffffffffffffffffffffffffffffffff163314611640576040517f08c379a000000000000000000000000000000000000000000000000000000000815260206004820181905260248201527f4f776e61626c653a2063616c6c6572206973206e6f7420746865206f776e65726044820152606401610ad0565b6040514790339082156108fc029083906000818181858888f1935050505015801561166f573d6000803e3d6000fd5b5050565b60065473ffffffffffffffffffffffffffffffffffffffff1633146116f4576040517f08c379a000000000000000000000000000000000000000000000000000000000815260206004820181905260248201527f4f776e61626c653a2063616c6c6572206973206e6f7420746865206f776e65726044820152606401610ad0565b600f55565b6113a383838360405180602001604052806000815250612427565b60065473ffffffffffffffffffffffffffffffffffffffff163314611795576040517f08c379a000000000000000000000000000000000000000000000000000000000815260206004820181905260248201527f4f776e61626c653a2063616c6c6572206973206e6f7420746865206f776e65726044820152606401610ad0565b6007546040517f42d65a8d00000000000000000000000000000000000000000000000000000000815273ffffffffffffffffffffffffffffffffffffffff909116906342d65a8d906117ef9086908690869060040161453d565b600060405180830381600087803b15801561180957600080fd5b505af115801561181d573d6000803e3d6000fd5b50505050505050565b60065473ffffffffffffffffffffffffffffffffffffffff1633146118a7576040517f08c379a000000000000000000000000000000000000000000000000000000000815260206004820181905260248201527f4f776e61626c653a2063616c6c6572206973206e6f7420746865206f776e65726044820152606401610ad0565b80516118ba906012906020840190613baa565b5050601080547fffffffffffffffffffffffffffffffffffffffffffffffffffffffffff00ffff1662010000179055565b60065473ffffffffffffffffffffffffffffffffffffffff16331461196c576040517f08c379a000000000000000000000000000000000000000000000000000000000815260206004820181905260248201527f4f776e61626c653a2063616c6c6572206973206e6f7420746865206f776e65726044820152606401610ad0565b805161166f906012906020840190613baa565b60065473ffffffffffffffffffffffffffffffffffffffff163314611a00576040517f08c379a000000000000000000000000000000000000000000000000000000000815260206004820181905260248201527f4f776e61626c653a2063616c6c6572206973206e6f7420746865206f776e65726044820152606401610ad0565b601080547fffffffffffffffffffffffffffffffffffffffffffffffffffffffffffffff00811660ff90911615179055565b60065473ffffffffffffffffffffffffffffffffffffffff163314611ab3576040517f08c379a000000000000000000000000000000000000000000000000000000000815260206004820181905260248201527f4f776e61626c653a2063616c6c6572206973206e6f7420746865206f776e65726044820152606401610ad0565b600e55565b60008181526002602052604081205473ffffffffffffffffffffffffffffffffffffffff1680610cea576040517f08c379a000000000000000000000000000000000000000000000000000000000815260206004820152602960248201527f4552433732313a206f776e657220717565727920666f72206e6f6e657869737460448201527f656e7420746f6b656e00000000000000000000000000000000000000000000006064820152608401610ad0565b600073ffffffffffffffffffffffffffffffffffffffff8216611c0f576040517f08c379a000000000000000000000000000000000000000000000000000000000815260206004820152602a60248201527f4552433732313a2062616c616e636520717565727920666f7220746865207a6560448201527f726f2061646472657373000000000000000000000000000000000000000000006064820152608401610ad0565b5073ffffffffffffffffffffffffffffffffffffffff1660009081526003602052604090205490565b60065473ffffffffffffffffffffffffffffffffffffffff163314611cb9576040517f08c379a000000000000000000000000000000000000000000000000000000000815260206004820181905260248201527f4f776e61626c653a2063616c6c6572206973206e6f7420746865206f776e65726044820152606401610ad0565b565b60065473ffffffffffffffffffffffffffffffffffffffff163314611d3c576040517f08c379a000000000000000000000000000000000000000000000000000000000815260206004820181905260248201527f4f776e61626c653a2063616c6c6572206973206e6f7420746865206f776e65726044820152606401610ad0565b600d55565b60065473ffffffffffffffffffffffffffffffffffffffff163314611dc2576040517f08c379a000000000000000000000000000000000000000000000000000000000815260206004820181905260248201527f4f776e61626c653a2063616c6c6572206973206e6f7420746865206f776e65726044820152606401610ad0565b601455565b60096020526000908152604090208054611de0906147d1565b80601f0160208091040260200160405190810160405280929190818152602001828054611e0c906147d1565b8015611e595780601f10611e2e57610100808354040283529160200191611e59565b820191906000526020600020905b815481529060010190602001808311611e3c57829003601f168201915b505050505081565b606060018054610fb2906147d1565b60105460ff610100909104161515600114611ee7576040517f08c379a000000000000000000000000000000000000000000000000000000000815260206004820152601860248201527f5075626c69632073616c6573206e6f74207374617274656400000000000000006044820152606401610ad0565b600b54811115611f53576040517f08c379a000000000000000000000000000000000000000000000000000000000815260206004820152600e60248201527f5175616e74697479206c696d69740000000000000000000000000000000000006044820152606401610ad0565b80600e54611f619190614751565b3414611fc9576040517f08c379a000000000000000000000000000000000000000000000000000000000815260206004820152601460248201527f496e636f72726563742076616c75652073656e740000000000000000000000006044820152606401610ad0565b611fd281612c19565b50565b61166f3383836131ed565b611fe981611ab8565b73ffffffffffffffffffffffffffffffffffffffff163373ffffffffffffffffffffffffffffffffffffffff16146120a3576040517f08c379a000000000000000000000000000000000000000000000000000000000815260206004820152602260248201527f596f75206d757374206f776e2074686520746f6b656e20746f2073656e64206960448201527f742e0000000000000000000000000000000000000000000000000000000000006064820152608401610ad0565b61ffff8216600090815260096020526040902080546120c1906147d1565b1515905061212b576040517f08c379a000000000000000000000000000000000000000000000000000000000815260206004820152601c60248201527f5468697320636861696e206973206e6f7420737570706f727465642e000000006044820152606401610ad0565b60105462010000900460ff1615156001146121c8576040517f08c379a000000000000000000000000000000000000000000000000000000000815260206004820152602360248201527f5761697420666f722072657665616c20696e206f7264657220746f207472617660448201527f656c2e00000000000000000000000000000000000000000000000000000000006064820152608401610ad0565b6121d18161331b565b604080513360208201528082018390528151808203830181526060820183527e01000000000000000000000000000000000000000000000000000000000000608083015262036ee860828084018290528451808503909101815260a28401948590526007547f40a7bb1000000000000000000000000000000000000000000000000000000000909552919360019391929160009173ffffffffffffffffffffffffffffffffffffffff16906340a7bb1090612298908a9030908a908790899060a6016144de565b604080518083038186803b1580156122af57600080fd5b505afa1580156122c3573d6000803e3d6000fd5b505050506040513d601f19601f820116820180604052508101906122e791906142cb565b5090508034101561237a576040517f08c379a000000000000000000000000000000000000000000000000000000000815260206004820152602d60248201527f4e6f7420656e6f7567682067617320746f20636f7665722063726f737320636860448201527f61696e207472616e736665722e000000000000000000000000000000000000006064820152608401610ad0565b60075461ffff881660009081526009602052604080822090517fc580310000000000000000000000000000000000000000000000000000000000815273ffffffffffffffffffffffffffffffffffffffff9093169263c58031009234926123ec928d928c913391908b906004016145e3565b6000604051808303818588803b15801561240557600080fd5b505af1158015612419573d6000803e3d6000fd5b505050505050505050505050565b6124313383612e16565b6124bd576040517f08c379a000000000000000000000000000000000000000000000000000000000815260206004820152603160248201527f4552433732313a207472616e736665722063616c6c6572206973206e6f74206f60448201527f776e6572206e6f7220617070726f7665640000000000000000000000000000006064820152608401610ad0565b610c05848484846133e8565b60008181526002602052604090205460609073ffffffffffffffffffffffffffffffffffffffff16612557576040517f08c379a000000000000000000000000000000000000000000000000000000000815260206004820152601f60248201527f55524920717565727920666f72206e6f6e6578697374656e7420746f6b656e006044820152606401610ad0565b600061256161348b565b9050600081511161258157604051806020016040528060008152506125af565b8061258b8461349a565b601360405160200161259f93929190614445565b6040516020818303038152906040525b9392505050565b60065473ffffffffffffffffffffffffffffffffffffffff163314612637576040517f08c379a000000000000000000000000000000000000000000000000000000000815260206004820181905260248201527f4f776e61626c653a2063616c6c6572206973206e6f7420746865206f776e65726044820152606401610ad0565b6007546040517fcbed8b9c00000000000000000000000000000000000000000000000000000000815273ffffffffffffffffffffffffffffffffffffffff9091169063cbed8b9c9061269590889088908890889088906004016146f7565b600060405180830381600087803b1580156126af57600080fd5b505af11580156126c3573d6000803e3d6000fd5b505050505050505050565b61ffff851660009081526008602052604080822090516126ef90879061441d565b908152604080516020928190038301902067ffffffffffffffff871660009081529252902060018101549091506127a8576040517f08c379a000000000000000000000000000000000000000000000000000000000815260206004820152602660248201527f4e6f6e626c6f636b696e6752656365697665723a206e6f2073746f726564206d60448201527f65737361676500000000000000000000000000000000000000000000000000006064820152608401610ad0565b8054821480156127d25750806001015483836040516127c892919061440d565b6040518091039020145b612838576040517f08c379a000000000000000000000000000000000000000000000000000000000815260206004820152601a60248201527f4c617965725a65726f3a20696e76616c6964207061796c6f61640000000000006044820152606401610ad0565b600080825560018201556040517f1c37a8220000000000000000000000000000000000000000000000000000000081523090631c37a822906128869089908990899089908990600401614564565b600060405180830381600087803b1580156128a057600080fd5b505af11580156128b4573d6000803e3d6000fd5b50505050505050505050565b60128054611de0906147d1565b60065473ffffffffffffffffffffffffffffffffffffffff16331461294e576040517f08c379a000000000000000000000000000000000000000000000000000000000815260206004820181905260248201527f4f776e61626c653a2063616c6c6572206973206e6f7420746865206f776e65726044820152606401610ad0565b61ffff83166000908152600960205260409020805461296c906147d1565b1590506129fd57604080517f08c379a00000000000000000000000000000000000000000000000000000000081526020600482015260248101919091527f546865207472757374656420736f75726365206164647265737320686173206160448201527f6c7265616479206265656e2073657420666f722074686520636861696e4964216064820152608401610ad0565b61ffff83166000908152600960205260409020610c05908383613c2e565b60065473ffffffffffffffffffffffffffffffffffffffff163314612a9c576040517f08c379a000000000000000000000000000000000000000000000000000000000815260206004820181905260248201527f4f776e61626c653a2063616c6c6572206973206e6f7420746865206f776e65726044820152606401610ad0565b601080547fffffffffffffffffffffffffffffffffffffffffffffffffffffffffffff00ff81166101009182900460ff1615909102179055565b60065473ffffffffffffffffffffffffffffffffffffffff163314612b57576040517f08c379a000000000000000000000000000000000000000000000000000000000815260206004820181905260248201527f4f776e61626c653a2063616c6c6572206973206e6f7420746865206f776e65726044820152606401610ad0565b73ffffffffffffffffffffffffffffffffffffffff8116612bfa576040517f08c379a000000000000000000000000000000000000000000000000000000000815260206004820152602660248201527f4f776e61626c653a206e6577206f776e657220697320746865207a65726f206160448201527f64647265737300000000000000000000000000000000000000000000000000006064820152608401610ad0565b611fd28161361a565b600082612c108584613691565b14949350505050565b323314612c82576040517f08c379a000000000000000000000000000000000000000000000000000000000815260206004820152600e60248201527f53656c66206d696e74206f6e6c790000000000000000000000000000000000006044820152606401610ad0565b80600c54612c909190614725565b600a541015612cfb576040517f08c379a000000000000000000000000000000000000000000000000000000000815260206004820152601260248201527f4f7563682c20736f6c64206f7574203a282000000000000000000000000000006044820152606401610ad0565b60015b818111612d2e57612d1c3382600c54612d179190614725565b61372c565b80612d2681614825565b915050612cfe565b5080600c6000828254612d419190614725565b909155505050565b600081815260046020526040902080547fffffffffffffffffffffffff00000000000000000000000000000000000000001673ffffffffffffffffffffffffffffffffffffffff84169081179091558190612da382611ab8565b73ffffffffffffffffffffffffffffffffffffffff167f8c5be1e5ebec7d5bd14f71427d1e84f3dd0314c0f7b2291e5b200ac8c7c3b92560405160405180910390a45050565b60008082806020019051810190612e009190613e1a565b91509150612e0e828261372c565b505050505050565b60008181526002602052604081205473ffffffffffffffffffffffffffffffffffffffff16612ec7576040517f08c379a000000000000000000000000000000000000000000000000000000000815260206004820152602c60248201527f4552433732313a206f70657261746f7220717565727920666f72206e6f6e657860448201527f697374656e7420746f6b656e00000000000000000000000000000000000000006064820152608401610ad0565b6000612ed283611ab8565b90508073ffffffffffffffffffffffffffffffffffffffff168473ffffffffffffffffffffffffffffffffffffffff161480612f4157508373ffffffffffffffffffffffffffffffffffffffff16612f2984611141565b73ffffffffffffffffffffffffffffffffffffffff16145b80612f7e575073ffffffffffffffffffffffffffffffffffffffff80821660009081526005602090815260408083209388168352929052205460ff165b949350505050565b8273ffffffffffffffffffffffffffffffffffffffff16612fa682611ab8565b73ffffffffffffffffffffffffffffffffffffffff1614613049576040517f08c379a000000000000000000000000000000000000000000000000000000000815260206004820152602560248201527f4552433732313a207472616e736665722066726f6d20696e636f72726563742060448201527f6f776e65720000000000000000000000000000000000000000000000000000006064820152608401610ad0565b73ffffffffffffffffffffffffffffffffffffffff82166130eb576040517f08c379a0000000000000000000000000000000000000000000000000000000008152602060048201526024808201527f4552433732313a207472616e7366657220746f20746865207a65726f2061646460448201527f72657373000000000000000000000000000000000000000000000000000000006064820152608401610ad0565b6130f6600082612d49565b73ffffffffffffffffffffffffffffffffffffffff8316600090815260036020526040812080546001929061312c90849061478e565b909155505073ffffffffffffffffffffffffffffffffffffffff82166000908152600360205260408120805460019290613167908490614725565b909155505060008181526002602052604080822080547fffffffffffffffffffffffff00000000000000000000000000000000000000001673ffffffffffffffffffffffffffffffffffffffff86811691821790925591518493918716917fddf252ad1be2c89b69c2b068fc378daa952ba7f163c4a11628f55a4df523b3ef91a4505050565b8173ffffffffffffffffffffffffffffffffffffffff168373ffffffffffffffffffffffffffffffffffffffff161415613283576040517f08c379a000000000000000000000000000000000000000000000000000000000815260206004820152601960248201527f4552433732313a20617070726f766520746f2063616c6c6572000000000000006044820152606401610ad0565b73ffffffffffffffffffffffffffffffffffffffff83811660008181526005602090815260408083209487168084529482529182902080547fffffffffffffffffffffffffffffffffffffffffffffffffffffffffffffff001686151590811790915591519182527f17307eab39ab6107e8899845ad3d59bd9653f200f220920489ca2b5937696c31910160405180910390a3505050565b600061332682611ab8565b9050613333600083612d49565b73ffffffffffffffffffffffffffffffffffffffff8116600090815260036020526040812080546001929061336990849061478e565b909155505060008281526002602052604080822080547fffffffffffffffffffffffff00000000000000000000000000000000000000001690555183919073ffffffffffffffffffffffffffffffffffffffff8416907fddf252ad1be2c89b69c2b068fc378daa952ba7f163c4a11628f55a4df523b3ef908390a45050565b6133f3848484612f86565b6133ff84848484613746565b610c05576040517f08c379a000000000000000000000000000000000000000000000000000000000815260206004820152603260248201527f4552433732313a207472616e7366657220746f206e6f6e20455243373231526560448201527f63656976657220696d706c656d656e74657200000000000000000000000000006064820152608401610ad0565b606060128054610fb2906147d1565b6060816134da57505060408051808201909152600181527f3000000000000000000000000000000000000000000000000000000000000000602082015290565b8160005b811561350457806134ee81614825565b91506134fd9050600a8361473d565b91506134de565b60008167ffffffffffffffff811115613546577f4e487b7100000000000000000000000000000000000000000000000000000000600052604160045260246000fd5b6040519080825280601f01601f191660200182016040528015613570576020820181803683370190505b5090505b8415612f7e5761358560018361478e565b9150613592600a8661485e565b61359d906030614725565b60f81b8183815181106135d9577f4e487b7100000000000000000000000000000000000000000000000000000000600052603260045260246000fd5b60200101907effffffffffffffffffffffffffffffffffffffffffffffffffffffffffffff1916908160001a905350613613600a8661473d565b9450613574565b6006805473ffffffffffffffffffffffffffffffffffffffff8381167fffffffffffffffffffffffff0000000000000000000000000000000000000000831681179093556040519116919082907f8be0079c531659141344cd1fd0a4f28419497f9722a3daafe3b4186f6b6457e090600090a35050565b600081815b84518110156137245760008582815181106136da577f4e487b7100000000000000000000000000000000000000000000000000000000600052603260045260246000fd5b602002602001015190508083116137005760008381526020829052604090209250613711565b600081815260208490526040902092505b508061371c81614825565b915050613696565b509392505050565b61166f828260405180602001604052806000815250613945565b600073ffffffffffffffffffffffffffffffffffffffff84163b1561393a576040517f150b7a0200000000000000000000000000000000000000000000000000000000815273ffffffffffffffffffffffffffffffffffffffff85169063150b7a02906137bd903390899088908890600401614482565b602060405180830381600087803b1580156137d757600080fd5b505af1925050508015613825575060408051601f3d9081017fffffffffffffffffffffffffffffffffffffffffffffffffffffffffffffffe016820190925261382291810190613fb9565b60015b6138ef573d808015613853576040519150601f19603f3d011682016040523d82523d6000602084013e613858565b606091505b5080516138e7576040517f08c379a000000000000000000000000000000000000000000000000000000000815260206004820152603260248201527f4552433732313a207472616e7366657220746f206e6f6e20455243373231526560448201527f63656976657220696d706c656d656e74657200000000000000000000000000006064820152608401610ad0565b805181602001fd5b7fffffffff00000000000000000000000000000000000000000000000000000000167f150b7a0200000000000000000000000000000000000000000000000000000000149050612f7e565b506001949350505050565b61394f83836139e8565b61395c6000848484613746565b6113a3576040517f08c379a000000000000000000000000000000000000000000000000000000000815260206004820152603260248201527f4552433732313a207472616e7366657220746f206e6f6e20455243373231526560448201527f63656976657220696d706c656d656e74657200000000000000000000000000006064820152608401610ad0565b73ffffffffffffffffffffffffffffffffffffffff8216613a65576040517f08c379a000000000000000000000000000000000000000000000000000000000815260206004820181905260248201527f4552433732313a206d696e7420746f20746865207a65726f20616464726573736044820152606401610ad0565b60008181526002602052604090205473ffffffffffffffffffffffffffffffffffffffff1615613af1576040517f08c379a000000000000000000000000000000000000000000000000000000000815260206004820152601c60248201527f4552433732313a20746f6b656e20616c7265616479206d696e746564000000006044820152606401610ad0565b73ffffffffffffffffffffffffffffffffffffffff82166000908152600360205260408120805460019290613b27908490614725565b909155505060008181526002602052604080822080547fffffffffffffffffffffffff00000000000000000000000000000000000000001673ffffffffffffffffffffffffffffffffffffffff861690811790915590518392907fddf252ad1be2c89b69c2b068fc378daa952ba7f163c4a11628f55a4df523b3ef908290a45050565b828054613bb6906147d1565b90600052602060002090601f016020900481019282613bd85760008555613c1e565b82601f10613bf157805160ff1916838001178555613c1e565b82800160010185558215613c1e579182015b82811115613c1e578251825591602001919060010190613c03565b50613c2a929150613cc0565b5090565b828054613c3a906147d1565b90600052602060002090601f016020900481019282613c5c5760008555613c1e565b82601f10613c93578280017fffffffffffffffffffffffffffffffffffffffffffffffffffffffffffffff00823516178555613c1e565b82800160010185558215613c1e579182015b82811115613c1e578235825591602001919060010190613ca5565b5b80821115613c2a5760008155600101613cc1565b600067ffffffffffffffff80841115613cf057613cf06148d0565b604051601f85017fffffffffffffffffffffffffffffffffffffffffffffffffffffffffffffffe0908116603f01168101908282118183101715613d3657613d366148d0565b81604052809350858152868686011115613d4f57600080fd5b858560208301376000602087830101525050509392505050565b60008083601f840112613d7a578182fd5b50813567ffffffffffffffff811115613d91578182fd5b602083019150836020828501011115613da957600080fd5b9250929050565b600082601f830112613dc0578081fd5b6125af83833560208501613cd5565b803561ffff81168114613de157600080fd5b919050565b803567ffffffffffffffff81168114613de157600080fd5b600060208284031215613e0f578081fd5b81356125af816148ff565b60008060408385031215613e2c578081fd5b8251613e37816148ff565b6020939093015192949293505050565b60008060408385031215613e59578182fd5b8235613e64816148ff565b91506020830135613e74816148ff565b809150509250929050565b600080600060608486031215613e93578081fd5b8335613e9e816148ff565b92506020840135613eae816148ff565b929592945050506040919091013590565b60008060008060808587031215613ed4578081fd5b8435613edf816148ff565b93506020850135613eef816148ff565b925060408501359150606085013567ffffffffffffffff811115613f11578182fd5b613f1d87828801613db0565b91505092959194509250565b60008060408385031215613f3b578182fd5b8235613f46816148ff565b915060208301358015158114613e74578182fd5b60008060408385031215613f6c578182fd5b8235613f77816148ff565b946020939093013593505050565b600060208284031215613f96578081fd5b5035919050565b600060208284031215613fae578081fd5b81356125af81614921565b600060208284031215613fca578081fd5b81516125af81614921565b600060208284031215613fe6578081fd5b813567ffffffffffffffff811115613ffc578182fd5b8201601f8101841361400c578182fd5b612f7e84823560208401613cd5565b60006020828403121561402c578081fd5b6125af82613dcf565b600080600060408486031215614049578081fd5b61405284613dcf565b9250602084013567ffffffffffffffff81111561406d578182fd5b61407986828701613d69565b9497909650939450505050565b60008060006060848603121561409a578081fd5b6140a384613dcf565b9250602084013567ffffffffffffffff8111156140be578182fd5b6140ca86828701613db0565b925050604084013590509250925092565b6000806000806000608086880312156140f2578283fd5b6140fb86613dcf565b9450602086013567ffffffffffffffff80821115614117578485fd5b61412389838a01613db0565b955061413160408901613de6565b94506060880135915080821115614146578283fd5b5061415388828901613d69565b969995985093965092949392505050565b60008060008060808587031215614179578182fd5b61418285613dcf565b9350602085013567ffffffffffffffff8082111561419e578384fd5b6141aa88838901613db0565b94506141b860408801613de6565b935060608701359150808211156141cd578283fd5b50613f1d87828801613db0565b6000806000806000608086880312156141f1578283fd5b6141fa86613dcf565b945061420860208701613dcf565b935060408601359250606086013567ffffffffffffffff81111561422a578182fd5b61415388828901613d69565b60008060408385031215614248578182fd5b613f7783613dcf565b600080600060408486031215614265578081fd5b83359250602084013567ffffffffffffffff80821115614283578283fd5b818601915086601f830112614296578283fd5b8135818111156142a4578384fd5b8760208260051b85010111156142b8578384fd5b6020830194508093505050509250925092565b600080604083850312156142dd578182fd5b505080516020909101519092909150565b81835281816020850137506000806020838501015260207fffffffffffffffffffffffffffffffffffffffffffffffffffffffffffffffe0601f840116840101905092915050565b6000815180845261434e8160208601602086016147a5565b601f017fffffffffffffffffffffffffffffffffffffffffffffffffffffffffffffffe0169290920160200192915050565b6000815461438d816147d1565b600182811680156143a557600181146143d457614403565b7fffffffffffffffffffffffffffffffffffffffffffffffffffffffffffffff00841687528287019450614403565b8560005260208060002060005b858110156143fa5781548a8201529084019082016143e1565b50505082870194505b5050505092915050565b8183823760009101908152919050565b6000825161442f8184602087016147a5565b9190910192915050565b60006125af8284614380565b600084516144578184602089016147a5565b84519083019061446b8183602089016147a5565b61447781830186614380565b979650505050505050565b600073ffffffffffffffffffffffffffffffffffffffff8087168352808616602084015250836040830152608060608301526144c16080830184614336565b9695505050505050565b6020815260006125af6020830184614336565b61ffff8616815273ffffffffffffffffffffffffffffffffffffffff8516602082015260a06040820152600061451760a0830186614336565b841515606084015282810360808401526145318185614336565b98975050505050505050565b61ffff8416815260406020820152600061455b6040830184866142ee565b95945050505050565b61ffff861681526080602082015260006145816080830187614336565b67ffffffffffffffff8616604084015282810360608401526145318185876142ee565b61ffff851681526080602082015260006145c16080830186614336565b67ffffffffffffffff8516604084015282810360608401526144778185614336565b61ffff871681526000602060c081840152818854614600816147d1565b8060c087015260e0600180841660008114614622576001811461465557614680565b7fffffffffffffffffffffffffffffffffffffffffffffffffffffffffffffff008516838a015261010089019550614680565b8d8852868820885b858110156146785781548b820186015290830190880161465d565b8a0184019650505b505050505083810360408501526146978189614336565b9150506146bc606084018773ffffffffffffffffffffffffffffffffffffffff169052565b73ffffffffffffffffffffffffffffffffffffffff8516608084015282810360a08401526146ea8185614336565b9998505050505050505050565b600061ffff8088168352808716602084015250846040830152608060608301526144776080830184866142ee565b6000821982111561473857614738614872565b500190565b60008261474c5761474c6148a1565b500490565b6000817fffffffffffffffffffffffffffffffffffffffffffffffffffffffffffffffff048311821515161561478957614789614872565b500290565b6000828210156147a0576147a0614872565b500390565b60005b838110156147c05781810151838201526020016147a8565b83811115610c055750506000910152565b600181811c908216806147e557607f821691505b6020821081141561481f577f4e487b7100000000000000000000000000000000000000000000000000000000600052602260045260246000fd5b50919050565b60007fffffffffffffffffffffffffffffffffffffffffffffffffffffffffffffffff82141561485757614857614872565b5060010190565b60008261486d5761486d6148a1565b500690565b7f4e487b7100000000000000000000000000000000000000000000000000000000600052601160045260246000fd5b7f4e487b7100000000000000000000000000000000000000000000000000000000600052601260045260246000fd5b7f4e487b7100000000000000000000000000000000000000000000000000000000600052604160045260246000fd5b73ffffffffffffffffffffffffffffffffffffffff81168114611fd257600080fd5b7fffffffff0000000000000000000000000000000000000000000000000000000081168114611fd257600080fdfea2646970667358221220da5354a7a5bc8a1f2b42e9af39b7a90ab19ad02eb6952904f6619be36781551a64736f6c63430008040033",
  "devdoc": {
    "kind": "dev",
    "methods": {
      "approve(address,uint256)": {
        "details": "See {IERC721-approve}."
      },
      "balanceOf(address)": {
        "details": "See {IERC721-balanceOf}."
      },
      "getApproved(uint256)": {
        "details": "See {IERC721-getApproved}."
      },
      "isApprovedForAll(address,address)": {
        "details": "See {IERC721-isApprovedForAll}."
      },
      "name()": {
        "details": "See {IERC721Metadata-name}."
      },
      "owner()": {
        "details": "Returns the address of the current owner."
      },
      "ownerOf(uint256)": {
        "details": "See {IERC721-ownerOf}."
      },
      "renounceOwnership()": {
        "details": "Leaves the contract without owner. It will not be possible to call `onlyOwner` functions anymore. Can only be called by the current owner. NOTE: Renouncing ownership will leave the contract without an owner, thereby removing any functionality that is only available to the owner."
      },
      "safeTransferFrom(address,address,uint256)": {
        "details": "See {IERC721-safeTransferFrom}."
      },
      "safeTransferFrom(address,address,uint256,bytes)": {
        "details": "See {IERC721-safeTransferFrom}."
      },
      "setApprovalForAll(address,bool)": {
        "details": "See {IERC721-setApprovalForAll}."
      },
      "supportsInterface(bytes4)": {
        "details": "See {IERC165-supportsInterface}."
      },
      "symbol()": {
        "details": "See {IERC721Metadata-symbol}."
      },
      "tokenURI(uint256)": {
        "details": "See {IERC721Metadata-tokenURI}."
      },
      "transferFrom(address,address,uint256)": {
        "details": "See {IERC721-transferFrom}."
      },
      "transferOwnership(address)": {
        "details": "Transfers ownership of the contract to a new account (`newOwner`). Can only be called by the current owner."
      },
      "transferYourNoOneToAnotherChain(uint16,uint256)": {
        "params": {
          "_destinationChainId": "The chain id you want to transfer too",
          "_tokenId": "Your token id that want to transfer. You have to own it ;)"
        }
      }
    },
    "version": 1
  },
  "userdoc": {
    "kind": "user",
    "methods": {
      "transferYourNoOneToAnotherChain(uint16,uint256)": {
        "notice": "Transfer the NFT from source chain to the destination chain"
      }
    },
    "version": 1
  },
  "storageLayout": {
    "storage": [
      {
        "astId": 130,
        "contract": "contracts/ImNoOne.sol:ImNoOne",
        "label": "_name",
        "offset": 0,
        "slot": "0",
        "type": "t_string_storage"
      },
      {
        "astId": 132,
        "contract": "contracts/ImNoOne.sol:ImNoOne",
        "label": "_symbol",
        "offset": 0,
        "slot": "1",
        "type": "t_string_storage"
      },
      {
        "astId": 136,
        "contract": "contracts/ImNoOne.sol:ImNoOne",
        "label": "_owners",
        "offset": 0,
        "slot": "2",
        "type": "t_mapping(t_uint256,t_address)"
      },
      {
        "astId": 140,
        "contract": "contracts/ImNoOne.sol:ImNoOne",
        "label": "_balances",
        "offset": 0,
        "slot": "3",
        "type": "t_mapping(t_address,t_uint256)"
      },
      {
        "astId": 144,
        "contract": "contracts/ImNoOne.sol:ImNoOne",
        "label": "_tokenApprovals",
        "offset": 0,
        "slot": "4",
        "type": "t_mapping(t_uint256,t_address)"
      },
      {
        "astId": 150,
        "contract": "contracts/ImNoOne.sol:ImNoOne",
        "label": "_operatorApprovals",
        "offset": 0,
        "slot": "5",
        "type": "t_mapping(t_address,t_mapping(t_address,t_bool))"
      },
      {
        "astId": 7,
        "contract": "contracts/ImNoOne.sol:ImNoOne",
        "label": "_owner",
        "offset": 0,
        "slot": "6",
        "type": "t_address"
      },
      {
        "astId": 2425,
        "contract": "contracts/ImNoOne.sol:ImNoOne",
        "label": "endpoint",
        "offset": 0,
        "slot": "7",
        "type": "t_contract(ILayerZeroEndpoint)2849"
      },
      {
        "astId": 2439,
        "contract": "contracts/ImNoOne.sol:ImNoOne",
        "label": "failedMessages",
        "offset": 0,
        "slot": "8",
        "type": "t_mapping(t_uint16,t_mapping(t_bytes_memory_ptr,t_mapping(t_uint256,t_struct(FailedMessages)2430_storage)))"
      },
      {
        "astId": 2443,
        "contract": "contracts/ImNoOne.sol:ImNoOne",
        "label": "trustedSourceLookup",
        "offset": 0,
        "slot": "9",
        "type": "t_mapping(t_uint16,t_bytes_storage)"
      },
      {
        "astId": 1799,
        "contract": "contracts/ImNoOne.sol:ImNoOne",
        "label": "MAX_SUPPLY",
        "offset": 0,
        "slot": "10",
        "type": "t_uint256"
      },
      {
        "astId": 1802,
        "contract": "contracts/ImNoOne.sol:ImNoOne",
        "label": "MAX_MINT_AT_ONCE",
        "offset": 0,
        "slot": "11",
        "type": "t_uint256"
      },
      {
        "astId": 1805,
        "contract": "contracts/ImNoOne.sol:ImNoOne",
        "label": "supply",
        "offset": 0,
        "slot": "12",
        "type": "t_uint256"
      },
      {
        "astId": 1807,
        "contract": "contracts/ImNoOne.sol:ImNoOne",
        "label": "whitelistPrice",
        "offset": 0,
        "slot": "13",
        "type": "t_uint256"
      },
      {
        "astId": 1809,
        "contract": "contracts/ImNoOne.sol:ImNoOne",
        "label": "publicMintPrice",
        "offset": 0,
        "slot": "14",
        "type": "t_uint256"
      },
      {
        "astId": 1811,
        "contract": "contracts/ImNoOne.sol:ImNoOne",
        "label": "capWhitelist",
        "offset": 0,
        "slot": "15",
        "type": "t_uint256"
      },
      {
        "astId": 1814,
        "contract": "contracts/ImNoOne.sol:ImNoOne",
        "label": "isWhitelistSaleOpen",
        "offset": 0,
        "slot": "16",
        "type": "t_bool"
      },
      {
        "astId": 1817,
        "contract": "contracts/ImNoOne.sol:ImNoOne",
        "label": "isPublicSaleOpen",
        "offset": 1,
        "slot": "16",
        "type": "t_bool"
      },
      {
        "astId": 1820,
        "contract": "contracts/ImNoOne.sol:ImNoOne",
        "label": "isRevealed",
        "offset": 2,
        "slot": "16",
        "type": "t_bool"
      },
      {
        "astId": 1824,
        "contract": "contracts/ImNoOne.sol:ImNoOne",
        "label": "whitelistAddressesMints",
        "offset": 0,
        "slot": "17",
        "type": "t_mapping(t_address,t_uint256)"
      },
      {
        "astId": 1826,
        "contract": "contracts/ImNoOne.sol:ImNoOne",
        "label": "baseTokenURI",
        "offset": 0,
        "slot": "18",
        "type": "t_string_storage"
      },
      {
        "astId": 1829,
        "contract": "contracts/ImNoOne.sol:ImNoOne",
        "label": "BASE_METADATA_EXTENSION",
        "offset": 0,
        "slot": "19",
        "type": "t_string_storage"
      },
      {
        "astId": 1831,
        "contract": "contracts/ImNoOne.sol:ImNoOne",
        "label": "merkleRoot",
        "offset": 0,
        "slot": "20",
        "type": "t_bytes32"
      }
    ],
    "types": {
      "t_address": {
        "encoding": "inplace",
        "label": "address",
        "numberOfBytes": "20"
      },
      "t_bool": {
        "encoding": "inplace",
        "label": "bool",
        "numberOfBytes": "1"
      },
      "t_bytes32": {
        "encoding": "inplace",
        "label": "bytes32",
        "numberOfBytes": "32"
      },
      "t_bytes_memory_ptr": {
        "encoding": "bytes",
        "label": "bytes",
        "numberOfBytes": "32"
      },
      "t_bytes_storage": {
        "encoding": "bytes",
        "label": "bytes",
        "numberOfBytes": "32"
      },
      "t_contract(ILayerZeroEndpoint)2849": {
        "encoding": "inplace",
        "label": "contract ILayerZeroEndpoint",
        "numberOfBytes": "20"
      },
      "t_mapping(t_address,t_bool)": {
        "encoding": "mapping",
        "key": "t_address",
        "label": "mapping(address => bool)",
        "numberOfBytes": "32",
        "value": "t_bool"
      },
      "t_mapping(t_address,t_mapping(t_address,t_bool))": {
        "encoding": "mapping",
        "key": "t_address",
        "label": "mapping(address => mapping(address => bool))",
        "numberOfBytes": "32",
        "value": "t_mapping(t_address,t_bool)"
      },
      "t_mapping(t_address,t_uint256)": {
        "encoding": "mapping",
        "key": "t_address",
        "label": "mapping(address => uint256)",
        "numberOfBytes": "32",
        "value": "t_uint256"
      },
      "t_mapping(t_bytes_memory_ptr,t_mapping(t_uint256,t_struct(FailedMessages)2430_storage))": {
        "encoding": "mapping",
        "key": "t_bytes_memory_ptr",
        "label": "mapping(bytes => mapping(uint256 => struct NonblockingReceiver.FailedMessages))",
        "numberOfBytes": "32",
        "value": "t_mapping(t_uint256,t_struct(FailedMessages)2430_storage)"
      },
      "t_mapping(t_uint16,t_bytes_storage)": {
        "encoding": "mapping",
        "key": "t_uint16",
        "label": "mapping(uint16 => bytes)",
        "numberOfBytes": "32",
        "value": "t_bytes_storage"
      },
      "t_mapping(t_uint16,t_mapping(t_bytes_memory_ptr,t_mapping(t_uint256,t_struct(FailedMessages)2430_storage)))": {
        "encoding": "mapping",
        "key": "t_uint16",
        "label": "mapping(uint16 => mapping(bytes => mapping(uint256 => struct NonblockingReceiver.FailedMessages)))",
        "numberOfBytes": "32",
        "value": "t_mapping(t_bytes_memory_ptr,t_mapping(t_uint256,t_struct(FailedMessages)2430_storage))"
      },
      "t_mapping(t_uint256,t_address)": {
        "encoding": "mapping",
        "key": "t_uint256",
        "label": "mapping(uint256 => address)",
        "numberOfBytes": "32",
        "value": "t_address"
      },
      "t_mapping(t_uint256,t_struct(FailedMessages)2430_storage)": {
        "encoding": "mapping",
        "key": "t_uint256",
        "label": "mapping(uint256 => struct NonblockingReceiver.FailedMessages)",
        "numberOfBytes": "32",
        "value": "t_struct(FailedMessages)2430_storage"
      },
      "t_string_storage": {
        "encoding": "bytes",
        "label": "string",
        "numberOfBytes": "32"
      },
      "t_struct(FailedMessages)2430_storage": {
        "encoding": "inplace",
        "label": "struct NonblockingReceiver.FailedMessages",
        "members": [
          {
            "astId": 2427,
            "contract": "contracts/ImNoOne.sol:ImNoOne",
            "label": "payloadLength",
            "offset": 0,
            "slot": "0",
            "type": "t_uint256"
          },
          {
            "astId": 2429,
            "contract": "contracts/ImNoOne.sol:ImNoOne",
            "label": "payloadHash",
            "offset": 0,
            "slot": "1",
            "type": "t_bytes32"
          }
        ],
        "numberOfBytes": "64"
      },
      "t_uint16": {
        "encoding": "inplace",
        "label": "uint16",
        "numberOfBytes": "2"
      },
      "t_uint256": {
        "encoding": "inplace",
        "label": "uint256",
        "numberOfBytes": "32"
      }
    }
  }
}